:020000041000EA
:1000000000B5324B212058609868022188439860DF
:10001000D860186158612E4B002199600221596106
:100020000121F02299502B49196001219960352056
:1000300000F044F80222904214D00621196600F024
:1000400034F8196E01211966002018661A6600F04E
:100050002CF8196E196E196E052000F02FF8012189
:100060000842F9D1002199601B49196000215960AB
:100070001A491B48016001219960EB211966A021F2
:10008000196600F012F800219960164914480160C1
:100090000121996001BC002800D000471248134993
:1000A000086003C880F30888084703B5996A0420EC
:1000B0000142FBD001200142F8D103BD02B5186610
:1000C0001866FFF7F2FF186E186E02BD00000240BE
:1000D000000000180000070000035F00212200005C
:1000E000F4000018222000A00001001008ED00E03C
:1000F00000000000000000000000000074B24E7A12
:1001000000200420F7010010C3010010C5010010F9
:10011000C1010010C1010010C1010010C101001097
:10012000C1010010C1010010C1010010C701001081
:10013000C1010010C1010010C9010010CB01001065
:10014000CD010010CD010010CD010010CD01001037
:10015000CD010010CD010010CD010010CD01001027
:10016000CD010010CD010010CD010010CD01001017
:10017000CD010010CD010010CD010010CD01001007
:10018000CD010010CD010010CD010010CD010010F7
:10019000CD010010CD010010CD010010CD010010E7
:1001A000CD010010CD010010CD010010CD010010D7
:1001B000CD010010CD010010CD010010CD010010C7
:1001C00000BE00BE00BE00BE00BE00BE00F04BF888
:1001D000103800BEF2EB8871DC950010009600101C
:1001E0003402001090A31AE700202149086006C8D5
:1001F00081F3088810471F48006800282FD10DA4FC
:100200000ECC002902D000F012F8F9E71A491B4A77
:10021000002000E001C19142FCD1194988471949E9
:1002200088471949884700BEFDE701C901C29A42C3
:10023000FBD3704700960010C0000020300900205A
:10024000709E00100000042000000420709E00102A
:1002500000100420001004200000000070470B482C
:1002600003F052FC0047EFF30580C0B27047000076
:1002700008ED00E0000000D0300900204C170020FD
:100280007920001025090010352000105756000075
:1002900006005250ABB36053388D00100600525028
:1002A000861C0302488D0010060052505422A29D65
:1002B000548D001005005250DE65F468709E0010E9
:1002C000F8B5C0460448054B10B5834203D0044B33
:1002D000002B00D0984710BD3009002030090020C5
:1002E0000000000006480749091A8910CB0F591869
:1002F00010B5491003D0044B002B00D0984710BD17
:1003000030090020300900200000000010B5074C23
:100310002378002B09D1FFF7D5FF054B002B02D026
:10032000044800E000BF0123237010BD380A0020FC
:1003300000000000C87D0010054B10B5002B03D055
:100340000449054800E000BFFFF7CCFF10BDC046E0
:10035000000000003C0A0020C87D0010121A8B41EA
:10036000100019007047D0231B06586870470123FE
:100370008340002903D1D022120693617047D02216
:1003800012065361FAE7000010B5040001F0E8FA24
:10039000002903DB20606160200010BD024B034A8E
:1003A0003F21034801F04AFEF87D0010C87D00108F
:1003B000147E001010B5002004F0BEFD0028FADB0A
:1003C000C0B210BD10B5FFF7F5FF0B4B06E05C1C8B
:1003D000187004F03BFDFFF7EDFF23000D2803D05C
:1003E000054A9A1A4F2AF2DD00221A700A2004F0F8
:1003F0002DFD014810BDC0462C14002070B500240E
:100400000BE0234B1D5D280000F018FC0123AB40DE
:10041000D022120653620134E4B2052CF1D9142023
:1004200000F00CFCD024240680235B0363620F20C1
:1004300000F004FC80231B02636263611B2000F058
:10044000FDFB80231B056362A3610023002405E0FC
:10045000104AD15C01228A4014430133052BF7DD99
:10046000200000F0F6FBD0231B069C620023002432
:1004700005E0094AD15C01228A4014430133052B6F
:10048000F7DD200000F0E5FBD0231B069C6270BD69
:10049000E07D0010E87D0010F07D001010B5084CE4
:1004A000206804F07BFA074904F027FA04F098FA70
:1004B000206006220021044804F09AFB10BDC046CB
:1004C0000804002090C1F93B84140020002307E0B9
:1004D000054AD15C01228A40D02109068A61013394
:1004E000052BF5D97047C046E07D0010F8B5070030
:1004F0000E0000243F2509E0134B1B5D002B02D0AA
:10050000013B114A13550134E4B26D08052C19D88A
:10051000EB07F8D5A300DB59B342EDDD0A4A135DC2
:100520000133DBB21355052BEDD9084B1A5D0123BE
:100530009340D022120653610521091B044804F0A0
:10054000EBFCE0E7F8BDC04684140020E07D00101D
:10055000047F0010F0B5DE4657464E464546E0B5EE
:10056000012187B01B20FFF702FF00210F20FFF7BA
:10057000FEFEEFF31083019372B604A8FFF704FFA9
:10058000049B059C029303943B4B00939F1E002108
:100590001B20FFF7ECFE002302373B8001211B20CC
:1005A000FFF7E5FEFFF7DFFE012302219B460F3335
:1005B0009A461033994620339846C208BF339C466A
:1005C000520083090A409B0002310B4013435A46F4
:1005D00002401A43430A0431DB000B4051461343E7
:1005E000020B12010A4049461343820E52010A408F
:1005F00041461343420892010A4080266146802406
:1006000013430209D20111407200C60936020B439E
:10061000802516401E43E300440BA4021C408023A7
:10062000AA00850A6D021540800D19013543C002EC
:10063000009B2C4301402143223339809F42A6D1A5
:1006400004A8FFF7A1FE049A059B02980399FFF7FF
:1006500085FE0A4A136818181060019B83F31088FE
:1006600001210F20FFF783FE07B03CBC904699465E
:10067000A246AB46F0BDC046F80E0020281400206C
:10068000F0B557464E464546DE460023E0B5002508
:1006900087B00293019398469C469A4699469B469A
:1006A000544B00201A1D00920024002700262A0027
:1006B00024330593009B4946490089466146490019
:1006C0008C46414649008846594649008B4651466A
:1006D00040000490029849008A4640000199029027
:1006E00001204900019101217F000397009F1B8891
:1006F00002370097039F18405D08074398080D4094
:10070000084049462943894601217600DD08064311
:1007100018090D400840614629438C4601215D09B6
:100720000D40414601438846012198090840594639
:1007300029438B460121DD090D40514601438A467C
:100740000121180A0840640052002C4302435D0A4C
:10075000980ADB0A0D4008400B400199BFB20D43D7
:100760000499B6B208430299A4B20B43494689B230
:100770008946614689B28C46414689B288465946C7
:1007800089B28B46514689B28A46A9B2019199B283
:100790000291009B059992B280B28B428BD15B464D
:1007A000BB465746B2461E0043461B049846534676
:1007B0000299000401430800019915041B049A469C
:1007C000294345463F043C432E43574665465B4616
:1007D0003D434F461A04084B1743186059609C600C
:1007E000DE601D615F6107B03CBC90469946A24641
:1007F000AB46F0BDF80E00201C0F002010B5040021
:10080000FFF7A8FED0231B06802252039A616420C2
:10081000002100F0DFFFFFF733FF062306E0590059
:100820009A001148415EA150013BDBB2002BF6D18A
:10083000FFF790FED0231B06802252035A616420EA
:10084000002100F0C7FFFFF71BFF062309E09A0015
:10085000A21859000448415E1068411A1160013B1A
:10086000DBB2002BF3D110BD1C0F0020F0B58FB010
:1008700006000D00642341E09A0008A9515802A81F
:10088000105801908446614402A811501A00531E6A
:10089000DBB2002AF0D123005C1EA4B2002B04D0EE
:1008A00008A8FFF7ABFF0622F1E7062208E09A004E
:1008B000B11802A812580868844662440A601A00F7
:1008C000531EDBB2002AF2D1134B1A6893009B1817
:1008D000590002A8FFF70AFE0C230CE00F4A9A18F1
:1008E0009200AA1859000E48415E1068844661447F
:1008F0001160013BDBB2062BF0D83B005F1EBFB29C
:10090000002B06D01822002102A804F071F90A2356
:10091000C2E70FB0F0BDC04608040020FAFFFF3F59
:100920001C0F0020F0B599B004F002FB07F000F9AD
:100930001F211C2000F038F9002200211C2000F0AB
:100940004BF900211C2000F061F97C4B1A688023D0
:100950009B015340E022D2011340794A1360794849
:1009600004F0A8FA002004F0E7FAC0B2732804D01B
:10097000FA20800000F058FFF1E7FFF78FFDFFF746
:100980003DFD714804F096FA002004F0D5FA431CAE
:1009900000D0A7E0FB30800000F046FFF1E76B4B92
:1009A0006B4A3F216B4801F049FB6B4804F082FA27
:1009B000FFF78CFDA8E0FFF705FD07F0D3F8040072
:1009C000664B1968664804F0A7FA002C11D0200085
:1009D00003F0DFFF634903F090FF041C9E21C9056B
:1009E00003F0D2FF00280DD1201C03F0F9FF5B4B70
:1009F00018605A4B19685C4804F08EFA5B4800F0A6
:100A000013FF81E05A48F2E7FFF7DCFC07F0AAF891
:100A100004000100574804F07FFA574B1A5D012388
:100A20009340D022120653616EE0A3006A469858A4
:100A300003F0B4FF514903F076FF04F00BF8020015
:100A40000B004F4804F068FA0134E4B2052CECD9ED
:100A50004C4804F061FA002410E0A2000CABD0581E
:100A600003F09CFF484903F05EFF03F0F3FF020030
:100A70000B00434804F050FA0134E4B2052CECD9E1
:100A8000404804F049FA00F06BFF00294FDB801B5F
:100A9000B94104003D4B04221A60284B1B68DB055A
:100AA000FBD5264B58680004000C03F065FB384A60
:100AB000384B03F0F0FA0022374B03F0ECFA03F066
:100AC000A3FB03F0C7FF02000B00344804F024FA34
:100AD000334B19682200334804F01EFAFA208000D4
:100AE00000F0A2FE00F03CFF06000F1E00DA56E701
:100AF0000A2004F021FA522800D156E7542800D1E8
:100B000059E7462800D17FE7254B00221A60303292
:100B10000021684604F06CF8302200210CA804F093
:100B200067F80CA96846FFF7A1FE00248EE7074B83
:100B3000074A3F21074801F081FAC04600C004403F
:100B400000D00440587E00106C7E0010F87D00102C
:100B5000C87D0010147E0010887E0010080400205C
:100B6000987E001007E7F340CC7E001010270000AD
:100B7000FFFFFF7FB87E0010E07D001010C0FF3641
:100B8000D07E0010D87E00100AD7233A00E004403F
:100B90006666666666660A400000303FDC7E0010CE
:100BA00028140020E87E001010B58300084A9446FF
:100BB00063441C6840226240C024144080225201D9
:100BC00013431C60C000034B9C466044416010BD51
:100BD00004C001400040014080000B4B9C46604433
:100BE00000290DD00823002A0CD1002213430268EB
:100BF00053400C221340802252011043036070477F
:100C00000023F0E70422F1E704C00140002909D1E4
:100C10008000094B9C466044C0239B01184340233D
:100C2000036070478000044B9C46604480239B0116
:100C3000184340230360F4E704C0014010B50123CA
:100C40008340D0221206936293610521FFF7ACFF27
:100C500010BD70B50500002401E06D0801341F2CA3
:100C600005D8EB07F9D52000FFF7E8FFF5E770BDE1
:100C7000EFF3108072B6034B1B68002BFBD0BFF361
:100C80005F8F70472C0100D0BFF35F8F024B0022B3
:100C90001A6080F3108870472C0100D070B50500F1
:100CA0000E001400FFF7E4FFF208AA1815780721D8
:100CB000314001238B402B4205D1DBB22B43137013
:100CC000FFF7E2FF70BD3100200001F051FAF0B5EE
:100CD00083B00700019114001E00FFF7C9FFB44262
:100CE0000ED8E208BA1815780721214001238B405D
:100CF0002B4201D00134F2E7DBB22B43137001E049
:100D000001246442FFF7C0FF002C02DB200003B087
:100D1000F0BD019B002BF9D0089801F029FA0000E2
:100D2000034B1B6802201840431E9841C0B2704715
:100D300000C00640002307E0054A9A189200BFF35E
:100D40005F8F0021116001331F2BF5D97047C0461A
:100D500040000034054A1078431CDBB21370172B97
:100D600002D9130010221A707047C0460C040020EC
:100D700000B583B00100044B00931F2318220348E1
:100D8000FFF7A5FF03B000BD187F0010340F00204F
:100D900070B505000C00080000F0D6FD200000F042
:100DA000DFFE0849200000F01FFEFFF7D3FF064BCF
:100DB0009C466044800068602C75A400034BE5509D
:100DC00070BDC046DD10001040000034D813002074
:100DD0000A4B1A68EFF3108172B61368002BFCD02F
:100DE000BFF35F8F054B1B68BFF35F8F00221A6054
:100DF00081F3108840BF002000217047F4130020C9
:100E000010B5002922D003681B7B99421ED8174BCE
:100E10009C466144090183689C4661440C684968AA
:100E2000002A19D003681B7B9A4215D883680F48A3
:100E30008446624412019A18106853680200012027
:100E40008B4201D80ED00020C0B210BD084B094A19
:100E50003B21094801F0F2F8054B064A3B210648C0
:100E600001F0ECF8A242EFD8EDE7C046FFFFFF0F1C
:100E7000E48000108C7F0010E481001010B5002980
:100E80001FD0037B99421CD84B005B18033B0468BE
:100E9000A446634400291AD0002A1ED0914222D0D1
:100EA000002A26D0047BA24223D804685000801870
:100EB0000338201881701978002920D041701A70E9
:100EC00010BD104B104A6821104801F0B7F8104BC4
:100ED000104A6F310D4801F0B1F80F4B0D4A7021E7
:100EE0000A4801F0ABF80D4B0A4A7121074801F09E
:100EF000A5F8044B044A6821044801F09FF81A70D1
:100F0000DEE7C0463C8100104C7F00105881001085
:100F1000A0810010587F0010AC810010B881001033
:100F200070B506000D00140000290BD0002A12D065
:100F3000806873689847002806D12A002100300095
:100F4000FFF79CFF200070BD220029003000FFF752
:100F500095FF2C00F6E70C00F4E7000070B5CE46D4
:100F600000B583B00500009201930AAB1C780BAB6F
:100F70001B789946002C28D003685A7B944209D1EB
:100F80000123002B1BD1002C3DD1200003B004BC59
:100F9000914670BD002C0CD01A7B944209D81A6877
:100FA00063001B19033BD3189B78002BE9D0012366
:100FB000E7E73F4B3F4A68213F4801F03FF83F4B8E
:100FC0003F4A65213F4801F039F803689C7B002CBB
:100FD000D9D012D01A7B94420FD862001219033A6A
:100FE00019688C46624451789973002900D1D973ED
:100FF0000023937053701370C5E72D4B2D4A682161
:101000002D4801F01BF8002C3BD02B681B7B9C4229
:1010100037D82D4BE3181B01AA6894466344009906
:10102000019A19605A60089A9A60099ADA602E68E3
:10103000002C2CD031D0337B9C422ED863001B195E
:10104000033B32689446634400229A705A701A70C7
:10105000717B22003000FFF763FF7073844200D081
:1010600093E7287D009A019B00F006FD061E02D042
:101070004B46002B17D00C9B002B00D185E71E7030
:1010800083E7124B124A3B210E4800F0D7FF114B69
:10109000114AA521084800F0D1FF054B054A6821F7
:1010A000054800F0CBFF2868210000F045FFE2E78B
:1010B0003C8100104C7F00105881001010800010FF
:1010C000C47F0010E4810010FFFFFF0FE4800010D8
:1010D0008C7F0010E08100106C7F0010F0B5DE46C0
:1010E00057464E464546E0B58BB009908200BA4B54
:1010F000D7583D00A3E0B94BB94A3F21B94800F0A9
:101100009DFFB94BB94A3B21B94800F097FF002B2E
:1011100002D1002A00D0BCE00021604600F002FFAE
:10112000A04219D13268736806920793B368994652
:10113000F3689A464B46002B14D0002C18D02B682D
:101140001B7B9C4214D8631EEA68D35C08931B0285
:10115000184328610020A4E0A64BA74A8C21A4488C
:1011600000F06CFFA54BA44A9021A14800F066FF57
:101170009D4BA34A40219E4800F060FF00239A4601
:10118000994600208DE02B69002B00D1A9E0434552
:101190001CD1069A079B10001900921BBB41994273
:1011A00002D804D1904202D901225242D317002B17
:1011B00012DB002104910131039102945146019107
:1011C000494600912800FFF7C9FE30E08D4B8A4A5E
:1011D0009F21874800F032FF804B814A3F218148A0
:1011E00000F02CFF002F02D1002E00D07CE02A68F6
:1011F000002C00D1C7E0537B9C4200D0ACE001231F
:10120000002B00D0BFE0D37B002B00D0C1E0D47313
:10121000002C00D1D0E02B681B7B9C4200D9CBE096
:10122000013CEB689C46644423780133237000231F
:101230002B616A68BFF35F8F13608BF3108800F037
:101240008FFB002900DA56E7002300240693079459
:101250006A68EFF3108772B61368002BFCD0BFF3F7
:101260005F8F2B689C465C7B002C87D000D148E7C1
:101270001B7B9C4200D944E7634BE6183601AB6800
:101280009846464432687368121A8B41002B00DC82
:101290003DE732687368099800F0EEFB00239A4638
:1012A00099466B68BFF35F8F00221A6087F310883E
:1012B0004B46002B00D185E0089B1B022343984638
:1012C00051461800C84706000F006A68EFF3108BFC
:1012D00072B61368002BFCD0BFF35F8F002F00DACB
:1012E00051E7002F00DC7DE72B69002B00D17EE762
:1012F00043451FD100F034FB02000B1E20DB010030
:10130000180092197B41984202D804D1914202D927
:1013100001225242D317002B18DB00210491013126
:101320000391029451460191494600912800FFF72C
:1013300015FE7CE7334B304AA2212D4800F07EFE9B
:10134000264B274A3F21274800F078FE234B244AAA
:101350003F21244800F072FE002C0ED0137B9C42EB
:101360000BD863001B19033B11688C4663449B78C0
:10137000002B00D144E7012342E7244B244A682193
:10138000244800F05BFE244B244AF621214800F05B
:1013900055FE002B0AD0117B8B4207D85900CB1881
:1013A000033B11688C4663445C7030E7174B184A66
:1013B0006821184800F042FE0B4B114A40210C48AE
:1013C00000F03CFE002800D039E70BB03CBC904652
:1013D0009946A246AB46F0BDD8130020F87D001018
:1013E000347F0010147E0010E48000108C7F001009
:1013F000E481001038800010DC7F00105080001065
:10140000987F00105C800010FFFFFF0F3C810010F0
:101410004C7F001058810010988000107C7F0010D5
:1014200010B50A4B5B68002B04D00A21084800F075
:10143000B7FB10BD054C2300064A1021206800F0C0
:101440008FFC03212000FFF7A3FCEEE7100400202F
:10145000F4130020010E001010B5064B5B68002B42
:1014600001D0044810BD044B044A5C21044800F03C
:10147000E5FDC0461004002018810010AC7F00106C
:10148000E4810010F0B5DE4657464E464546E0B5CD
:1014900089B0804616001F00129B994614AB1B783A
:1014A0009A461F236B4400221A7033E000280AD0AA
:1014B00042461268127B904205D8421E4146C968D6
:1014C0008A5C934646E0434B434A4021434800F040
:1014D000B5FD32003B00361BAF41BB4202D804D100
:1014E000B24202D901267642F717002F12DA3C4B9E
:1014F0003C4A3F213C4800F0A1FD394B394A3F218D
:10150000394800F09BFD01246442E517002D4EDBB5
:1015100026002F0043465B68EFF3108572B61C6807
:1015200062425441E4B2002CF9D1BFF35F8F1F2314
:101530006B440493002303930293139B01934B4644
:10154000009332003B004046FFF708FD031EADD17B
:101550000022934641464968BFF35F8F00220A602C
:1015600085F31088002B28D01F236B441B78002B99
:1015700002D15A4614020443002B20D05346002BBC
:101580001DD013992000C84704000D0003000B4331
:101590001DD000299DDB00F0E3F90029ADDB241804
:1015A0004D41A942AFD8B1D1A042AFD9ABE70C4B66
:1015B0000C4A3F210C4800F041FD01246442200008
:1015C00009B03CBC90469946A246AB46F0BD00240B
:1015D000F5E7C046E4800010987F0010E481001019
:1015E000F87D0010347F0010147E001070B50400E8
:1015F0004268EFF3108572B61368002BFCD0BFF37E
:101600005F8FCAB22668737B9A421BD101200028E3
:101610004AD023698B422DD0090AC9B2002A30D0A2
:1016200023681B7B9A422CD8531EE068C35C8B4214
:101630002DD000206368BFF35F8F00221A6085F30E
:10164000108870BD002A0DD0337B9A420AD853000F
:101650009B18033B3068844663449B78002B07D17A
:101660000020D4E7134B144A6821144800F0E6FC2C
:101670000120CCE78521124B124A4900124800F0A4
:10168000DDFC124B124A40210F4800F0D7FC11003C
:10169000300000F051FC0028CCD112210D4B094A3A
:1016A000FF31094800F0CAFC23698B42C2D10023F4
:1016B0002361BFE73C8100104C7F0010588100106F
:1016C000BC800010F87F0010E4810010E48000105E
:1016D000987F0010E0800010F0B587B006000F0082
:1016E000FEF7C1FD00282AD106246442E517A4199B
:1016F0007D41BD4202D803D1B44201D90024002566
:10170000002D1FDB0494059500F02AF900291FDB4A
:10171000241A8D41002D21DDFFF79EFE0023029348
:101720000193254B0093049A059BFFF7ABFE00281D
:1017300031DA3000390000F01FF907B0F0BD1F4862
:1017400000F016FD1E4B1F4A3F211F4800F076FC9B
:101750001B4B1C4A3F211C4800F070FC002DE8D1B7
:10176000002CD9D1E5E7002300E00023002BE0D1D5
:10177000164B1A68EFF3108172B61368002BFCD079
:10178000BFF35F8F114B1B68BFF35F8F00221A609E
:1017900081F3108820BF0499059A0D4B5B6A9A4229
:1017A000E3D80B48806A884203D29A42DBD00123F7
:1017B000DCE70123DAE7C046D10D001018820010E3
:1017C000F87D0010347F0010147E0010F413002008
:1017D0000040054070B504000D0000F0C1F800297C
:1017E00010DB02000B00001969418B4202D804D1C2
:1017F000824202D901204042C117002908DBFFF7CD
:101800006BFF70BD054B064A3F21064800F016FCF1
:10181000024B034A3F21034800F010FCF87D001002
:10182000347F0010147E001010B5FA2292000023BD
:10183000002103F03BF8FFF7CDFF10BD70B584B079
:1018400005000C00FFF708FE002302930193194BDB
:1018500000932A002300FFF715FE061E12DC164B2C
:101860005B6A9C4209D8144A926AAA4208D29C42F6
:1018700001D0012002E0002000E0002004B070BD93
:101880000120FBE720BFFFF7E7FD3100FFF7AEFEC9
:10189000094B5B6A9C4209D8074A926AAA4207D25E
:1018A0009C4201D00120E9E70020E7E70020E5E7BE
:1018B0000120E3E7D10D00100040054070B5EFF3C3
:1018C00005833F2018401038EFF3108472B6194B8F
:1018D0001B68002BFBD0BFF35F8F012319008140F1
:1018E000154A5163154A12781500C5402B4214D091
:1018F000114B5D6A8300124E9B599D4206D38300B3
:10190000104D5B598A430D490A7007E00A4A031DCE
:101910009B0099589950002300E00023BFF35F8F8C
:10192000044A0021116084F31088002B00D09847EE
:1019300070BDC046280100D000400540271400209B
:1019400000140020E80D002010B50100024A0348F1
:10195000FFF7A4F910BDC0469C820010241400209B
:10196000044B596A00E01900024B986A5B6A99427D
:10197000F9D1704700400540084B5B6A01E0074B16
:101980005B6A8B42FBD301E0044B5B6A8B4203D161
:10199000024B9B6A8342F7D37047C0460040054024
:1019A00070B504000D00FFF7DBFF02000B00200004
:1019B0002900801859418B4202D804D1824202D9B1
:1019C00001204042C117002902DBFFF7D5FF70BD9F
:1019D000024B034A3F21034800F030FBF87D001022
:1019E00068820010147E001070B504000D00EFF343
:1019F000108672B61B4B1B68002BFBD0BFF35F8FAA
:101A0000002D1CD0200000F04DFD174B98420BD04C
:101A10001900200000F04EFD0121200000F032FDF1
:101A20000123A340114A1360A400114BE550BFF3FA
:101A30005F8F0C4B00221A6086F3108870BDA200E5
:101A40000B4B0021D1500122A2400A490B7893434D
:101A50000B700549200000F057FD0021200000F028
:101A600011FDE4E7280100D0BD18001038600540E2
:101A7000E80D002027140020F0B5DE4600B584B044
:101A80000500140001921E000293FFF769FF039402
:101A90008E422CD9EFF3108B72B6294B1B68002BAA
:101AA000FBD0BFF35F8F274A17780124AC40E3B225
:101AB0003B431370244B5C632A1D92000199D15063
:101AC000AA002249029850501B6A23421BD11E4B88
:101AD0001B6C234211D00020BFF35F8F184B0022F4
:101AE0001A608BF3108804B004BC9346F0BD8E429C
:101AF00001D18442CED80120F5E7154B154AC1210A
:101B0000154800F09BFAFFF72BFF8E4214D802D144
:101B1000039B834210D80B4B1B78BB420ED00A4B61
:101B20001C625C631F222A40012393400B4A13600E
:101B3000044B1F700120CFE70020CDE70120CBE749
:101B4000280100D027140020004005400014002088
:101B5000C082001080820010E482001080E200E069
:101B600010B5EFF3108472B60A4B1B68002BFBD044
:101B7000BFF35F8F01238340074A136207490A7846
:101B80009A430A70BFF35F8F024B00221A6084F3FE
:101B9000108810BD280100D0004005402714002007
:101BA000024B9C466144890001607047400000344C
:101BB00010B50400FFF7CEF801002000FFF7F0FF9A
:101BC000FF232371BFF35F8F10BD10B50400FFF733
:101BD000C1F801002000FFF7E3FFFF23237100237A
:101BE0006371BFF35F8F10BD034B9C466144890056
:101BF0000160BFF35F8F70474000003410B50400F0
:101C00000120FFF7B5F801002000FFF7EDFF10BD40
:101C100010B500291FD0037B99421CD84B005B18DC
:101C2000033B0468A446634400291AD0002A1ED04E
:101C3000914222D0002A26D0047BA24223D80468F5
:101C4000500080180338201881701978002920D09E
:101C500041701A7010BD104B104A6821104800F0F6
:101C6000EDF9104B104A6F310D4800F0E7F90F4BBA
:101C70000D4A70210A4800F0E1F90D4B0A4A712122
:101C8000074800F0DBF9044B044A6821044800F0DF
:101C9000D5F91A70DEE7C0463C810010E8830010D9
:101CA00058810010A0810010F4830010AC81001056
:101CB000B881001070B506000D00140000290BD08B
:101CC000002A12D0806873689847002806D12A003D
:101CD00021003000FFF79CFF200070BD220029008A
:101CE0003000FFF795FF2C00F6E70C00F4E700004A
:101CF00010B50023437301338373037BC373012344
:101D0000027B9A4214D9002B0CD0027B934209D853
:101D10005A00D218033A01688C4662440133DBB2A0
:101D20005370EDE70B4B0C4A68210C4800F086F924
:101D3000002A09D0924207D8016853009A18033A42
:101D40008A180023537010BD024B034A68210348D0
:101D500000F074F93C810010E883001058810010F5
:101D600010B5017342608360FFF7C2FF10BD000031
:101D700070B50400002901D1080070BD002934D0DD
:101D8000037B994231D84B005B18033B02689446B1
:101D900063445A78002AEFD02DD0037B9A422AD888
:101DA00053009B18033B0068844663445D78002021
:101DB0005870002925D0237B994222D84B005B180C
:101DC000033B206884466344002058702000FFF7DE
:101DD00071FF060029002000FFF7CAFF0200310052
:101DE0002000FFF767FF0100C6E7094B094A682199
:101DF000094800F023F9064B064A6821064800F01E
:101E00001DF9034B034A6821034800F017F9C04647
:101E10003C810010E88300105881001070B5050067
:101E20000C001600002928D02DD0037B99422AD817
:101E30004B005B18033B0268944663445A78002ABF
:101E400027D19A78002A2AD11978FFF791FF030049
:101E5000002E03D0EA7B002A27D1EC73002B37D168
:101E6000002C49D02B7B9C4246D82A6863001C1961
:101E7000033C14190023637070BD224B224A3821A1
:101E8000224800F0DBF8224B224A6821224800F069
:101E9000D5F8224B1C4A3A211C4800F0CFF8204BC1
:101EA000194A3B21194800F0C9F8002A0AD0297BB9
:101EB0008A4207D851008A18033A29688C4662443E
:101EC0005470CAE7124B134A6821134800F0B6F861
:101ED000002B0BD02A7B934208D843001B18033BEE
:101EE0002A689446634400229A70B9E7084B094A6D
:101EF0006821094800F0A2F8054B064A6821064807
:101F000000F09CF85C8400100884001064840010C9
:101F10003C810010E8830010588100109884001064
:101F2000C084001070B504000A00457B2900FFF74B
:101F300075FF6073280070BD10B50400002966D0DD
:101F4000437B8B420ED0002911D0037B99420ED8DF
:101F50004B005B18033B0268D0188378002B0CD130
:101F6000002055E00121FFF7DDFF012050E0294B63
:101F7000294A6821294800F061F8002B1FD0227BF4
:101F800093421CD85A00D318033B2268D218137806
:101F90008B421AD0002B1BD0227B934218D85A00B8
:101FA000D318033B2268D21853788B4216D0002BEB
:101FB000F0D11B4B1B4A67211B4800F03FF8154B23
:101FC000154A6821154800F039F84378137007E086
:101FD000104B114A6821114800F030F843785370D3
:101FE00000238370437001222000FFF717FF0200D7
:101FF000617B814205D02000FFF75CFE6073012009
:1020000006E00A4B074A6D21074800F017F8002048
:1020100010BDC0463C810010E883001058810010BC
:10202000348400101C840010648400103C84001070
:1020300000BEFDE710B5FFF7FBFF000010B582B052
:102040000C001900002A0CD0084B002A0BD001927A
:10205000009323000200064802F05EFF0120FFF714
:10206000E7FF044BF1E7034AF1E7C046E4840010C0
:10207000F4840010007F001070B52B4B2B4A1A60BF
:102080002B4B2C4A1A602C4B9A682A4B9343FAD15B
:102090002A4C01E008CC9847294B9C42FAD300F027
:1020A000FDF8234B274A1A60234B9B68DB43DB0177
:1020B000FAD1254B40229A675A671A67DA66234C91
:1020C00009E0234B234A83212348FFF7B7FF200071
:1020D000FFF76EFD0834214B9C4209D22368002B88
:1020E000F5D0012BEDD12000FFF76FFD0834F2E7AA
:1020F0001B4CA1681B4DC022280002F07FFDA5608B
:10210000FEF7B1F8002800D000BEFEF713FE00F085
:1021100049FBFFF785F9144C01E008CC9847134BB5
:102120009C42FAD370BDC04600E00040BFCDFBFE2C
:1021300000F00040FE7F3C0000C000401809002075
:1021400028090020FFFFFF0100F0014010090020D6
:1021500048850010248500106885001018090020AB
:1021600000ED00E0000000202809002030090020D8
:102170000FB400B583B0084802F09CFE049B002B0E
:1021800007D005A90191180002F0A4FE034802F04F
:1021900091FE0120FFF74CFF3485001044850010AC
:1021A000F0B5DE46574680B583B007000E00924674
:1021B0000A9A93424CD3190E01911B021800009306
:1021C0000A9A002301F036FD05007B00DB199C0014
:1021D0002D4B9C4664446368834200D260603B1F81
:1021E000DBB29B46012B39D9C0239B0123438022BC
:1021F00012011A60BB00254A9958002905D0506980
:1022000001F0D6FC01300138FDD153465B01226854
:102210005340E022134080225201224313605B4668
:10222000012B26D980239B012343802212011A60AF
:1022300065602A0000230098019901F0FBFCBF00B3
:10224000124BF850012003B00CBC92469B46F0BDE7
:102250000F4B104A2D211048FFF7F0FE012EC3D17D
:10226000C0239B01234303221A60A368DB07FCD52C
:10227000CBE72168714003230B401360A368012260
:10228000B2401A42FAD0CDE700800040380F00205B
:10229000B8850010A8850010CC85001030B583B03B
:1022A0000C2000F01BFBFEF73BFD00280DD00023A7
:1022B00004E099002D4A2E4888500133092BF8D9A3
:1022C0002A4B2C4A5A6203B030BD2B4B00229A672E
:1022D00000F072FB294B01221A60274B5B6C012B2B
:1022E000FBD1274B03221A60234B9B6B012BFBD1A5
:1022F000022400940533234A0121234800F060FAA8
:1023000000940523214A0121214800F059FA214B6C
:102310000093002202210420FFF742FF1E4D00958A
:102320002B00002201210520FFF73AFF104C0094FA
:102330002300002200210720FFF732FF0094230032
:10234000002200210820FFF72BFF0A4B00932300F7
:10235000002200210920FFF723FF00952B00002217
:1023600000210620FFF71CFFADE7C046380F002014
:10237000006CDC021BB70000008000403CB0004055
:1023800030B00040002F68590080024000389C1C8B
:1023900000C00240001BB70040597307074B9B6801
:1023A000103080001950BFF35F8FBFF35F8F044B75
:1023B0000021196082F310887047C04600ED00E0EC
:1023C000240100D010B5091A0B1F0A4A9446614433
:1023D000094A914208D8DA0706D45B105B055B0D09
:1023E0000648184380B210BD054B064A8B210648AB
:1023F000FFF724FEFC070000FE0F000000E0FFFFD7
:1024000010880010288600104088001010B5091AA6
:1024100004394C08090B08D14905490D064A1143F6
:102420000180064B2343438010BD054B054A932191
:102430000548FFF703FEC04600F0FFFF00F8FFFF6E
:102440008C860010348600104088001001238340E1
:10245000034A10681840431E9841C0B27047C046F6
:1024600000E100E0002902D1034B18607047034BE4
:102470001860034B1860F9E780E100E080E200E0BB
:1024800000E100E010B5012383401800FFF7EAFFE8
:1024900010BD000001238340014A13607047C0460D
:1024A00000E200E0024B9B6810308000C05870478B
:1024B00000ED00E070B504000D00EFF3108672B679
:1024C0000C4B1B68002BFBD0BFF35F8F2000FFF786
:1024D000E9FF094B984201D0A84205D132002900FA
:1024E0002000FFF75BFF70BD044B054A6E210548D5
:1024F000FFF7A4FD240100D0CD010010D887001003
:102500000C86001040880010F0B5CE4600B584B0AF
:1025100001900D00EFF3108672B6584B1B68002B2C
:10252000FBD0BFF35F8F564B9A68019C1034A30019
:10253000D758544B9F4200D19BE0AF4200D19AE064
:102540000297514BFB1A2F2B08D932003900019802
:10255000FFF724FF04B004BC9146F0BD0198FFF7DB
:1025600075FF039000210198FFF78CFFBFF35F8F89
:10257000FDF779FE002801D0844211D10123029C8D
:102580009C430021A368AB4212D00622A256002A27
:102590000DDB53009B189A0021003B4CA418F1E777
:1025A0001E213A4B3A4AFF313A48FFF747FD2100D6
:1025B000AB4257D10623E3569946002B38DB5A002D
:1025C0004A449100304B5B189A68A260DA79E27154
:1025D00006229A56A2719B795BB2002B12DABD20BB
:1025E0000002A0804B465B004B449A00264B9B1890
:1025F000294A117899714B46137003990198FFF796
:1026000041FFA2E7201D204A8B181A1D9B88D90A7A
:102610001C2907D159054915023149005118FFF706
:10262000D1FEDEE71D4B1E4A99211A48FFF706FD31
:10263000002812D100290ED0FF238B71194B8B80FB
:10264000154A1378A371184B0F49641A6441634308
:102650001B0D1370D1E70B4FF2E7201D1349FFF755
:10266000D5FECAE75221124B094AFF310948FFF74C
:10267000E5FC044F69E7034F67E7C046240100D03B
:1026800000ED00E0CD01001038040020AC87001000
:102690005C86001040880010251400206087001020
:1026A0004C86001000BDFFFFAAAA000072040020A3
:1026B000D0870010F8B50400012606432D4BF31A0D
:1026C0002F2B28D8FDF7CFFD00282BD0EFF3108754
:1026D00072B6294B1B68002BFBD0BFF35F8F274DD1
:1026E00022002449521A524155432D0D6DB2244BFC
:1026F0009B6880001B58B3421BD00023032B32D8A9
:102700005A00D21891001B4A5218927952B2AA422A
:102710001FD00133F2E7BB211A4B1B4A49001B486B
:10272000FFF78CFC7A211A4B174AFF311748FFF745
:1027300085FC134B9B68174A1A50174B1A78A271E5
:102740001D70BFF35F8F0C4B00221A6087F3108857
:10275000F8BD08495A00D618B0000818FF2686713F
:102760000E4B8380E9E7C5210D4B074A4900074816
:10277000FFF764FC38040020240100D0AAAA00005E
:1027800000ED00E07887001070860010408800108F
:10279000A0870010CD0100102514002000BDFFFF10
:1027A000348400100023044A03E00449116001331B
:1027B0000432072BF9D9704700E400E08080808064
:1027C000F0B583B00400019117001E000C2001F049
:1027D000EFF905004201121A93019B1ADB001B1846
:1027E0009901380001F0E4F90200103A98235B00E7
:1027F0009A4232D8731E062B35D8089B013B062B14
:1028000031D8089B9E4234D33F09AF4237D33304BB
:10281000089A16031E432368002B36DB254B9C4287
:1028200045D080214901244B1960244B1960244A6A
:1028300092680B009343FAD1019B2360A060221D94
:10284000C0239B01134321221A602268002AFCDA6C
:10285000E66008221A6003B0F0BD1A4B1A4A16212E
:102860001A48FFF7EBFB1A4B174A19211748FFF7D5
:10287000E5FB184B144A1F211448FFF7DFFB164BEA
:10288000114A22211148FFF7D9FB22683F23134048
:10289000019A9342C2D1A3681B051B0D8342BDD18F
:1028A000E368EE22D2021340B342B7D1D3E78021CE
:1028B0008901B8E700C0024000E0004000F000409D
:1028C00000C00040888800107C880010A488001098
:1028D000E08800102C8900104489001080239B00A0
:1028E0001843014BD862704700800540024B1A68BC
:1028F000024B5A607047C046D0130020008005404C
:1029000010B5164B8022D2051A60154B154A1A6075
:10291000002918D0144BE022D2041A60002817D0E6
:1029200043011B1A9B0018180301104A1360104A38
:10293000934201D90D4B1A60FFF7D8FF0A4B802252
:10294000D2051A6010BD054BE022D2041A60E5E7FB
:10295000054B802212061A60F4E7C04600B005401D
:1029600008200140FCFF010000A00540D01300201A
:10297000FFFFFF0010B50C4B8024E4051C6000280D
:1029800007D10A4B0021D96100211000FFF7B8FFE1
:1029900010BD01230343054C0548E061054858403C
:1029A00020626162A362EFE700B00540008005404D
:1029B000D3C007B02D3FF84F064BAA2212011A6070
:1029C0002F22DA60044B054A1A60024B5B68002B29
:1029D000FBDA7047004002400060024000B0FA009D
:1029E000704710B5002802D00B684968984710BDA1
:1029F000002307E09A00D3185A004B1C03600B78A1
:102A00009B18303B01680A78303AD2B2092AF1D9D2
:102A100018007047F0B5D6464F464646C0B582B05E
:102A200005000091904601930A9B99460B9C0C9ED1
:102A30000D9B9B0712D04E460C9B994618E0541CE8
:102A4000019B00992020A84701372200B742F6D306
:102A500054460C964E460C9B994609E02700A24628
:102A6000F4E7013C571C305D019B0099A8473A00F0
:102A7000002CF6D14E460D9B9B070AD5474605E034
:102A8000541C019B00992020A8472200D31BB3426D
:102A9000F6D3100002B01CBC90469946A246F0BD89
:102AA000F0B5CE46474680B587B0049205930E9E9A
:102AB0000F9C10AD2B789946129F139B149DAA076B
:102AC0001CD4002B0CD0EA070AD54A46002A02D1B2
:102AD0000C322A4204D0013B02E03022325501344C
:102AE000BC4205D21F2CF8D902E030223255013405
:102AF000EA0703D59C4201D21F2CF6D9EA0615D568
:102B00006A0505D4002C03D0BC421CD09C421AD0CC
:102B1000119A102A23D0119A102A28D0119A022A29
:102B20002DD01F2C02D83027375501341F2C2FD819
:102B30004A46002A29D16A0737D42A0728D52027F0
:102B40003755013424E0671E002F06D0119A102A51
:102B500001D03C00DCE7023CDAE73C00D8E7AA06FB
:102B6000D9D41F2CD7D8782737550134D9E7AA06EE
:102B7000D4D51F2CD2D8582737550134D1E71F2C74
:102B8000CFD8622737550134CBE72D27375501348D
:102B90000395029301940096059B049AFFF73AFF70
:102BA00007B00CBC90469946F0BD2B273755013431
:102BB000EEE7F0B5C64600B594B0089009910A92C8
:102BC0000B931AAB10CB1B7898461F9D002C01D19C
:102BD00010239D438027FF002F4016D0002C20D0CB
:102BE000002712E0AA061AD54121C918C9B20A392C
:102BF000C9B27E1C0CABD9551C99200000F0D8FF3F
:102C0000041E0FD01F2E0DD837001C99200000F095
:102C1000CFFFCBB2092BE5D83033D9B2E9E7612138
:102C2000E3E7002606951E9B05931D9B04931C9BC2
:102C300003934346029301960CAB00930B9B0A9AB5
:102C400009990898FFF72CFF14B004BC9046F0BD1A
:102C5000F0B5D6464F4680B599B00C900D910E92C6
:102C60000F93209C219D22AB1B789A46249B0A93AC
:102C7000259B0B93289B994623002B4303D11033AC
:102C80004A469A4391468026F6004B461E4007D09E
:102C900023002B4331D0002637004E4609941BE019
:102CA00037004E46099417E0B20621D54122D218CA
:102CB000D2B20A3AD2B27C1C10ABDA550A9A0B9BFC
:102CC0000998290000F0B6FF09900D000B0003439E
:102CD00015D01F2C0ED827000A9A0B9B09982900A3
:102CE00000F0A8FFD3B2092BDED83033DAB2E2E726
:102CF0006122DCE72700B14603E0002701E027005E
:102D0000B1464B460693279B0593269B04930A9B4B
:102D1000039353460293019710AB00930F9B0E9AB7
:102D20000D990C98FFF7BCFE19B00CBC91469A4661
:102D3000F0BD0000F0B5DE4657464646C0B592B03D
:102D400008900691099207931A9C1B9D22002B0064
:102D50002000290001F0FDF9002800D0EAE001225E
:102D60005242D34B2000290001F0EEF9002800D098
:102D7000E0E001225242CF4B2000290001F0CEF9C1
:102D8000002800D0D6E0002200232000290001F016
:102D9000C5F9002800D0E3E022002B000A920B9333
:102DA0008023DB001E9A1A409246131E01D106337F
:102DB0001C930A980B9902000B000C920D930300D0
:102DC0000A00024300D1D3E00A00100D4005400D77
:102DD000B94EB44660441203120B1E00B74B1343A6
:102DE0001F0001F0C9F9B64AB64B01F054F9B64AD2
:102DF000B64B01F029F90C900D910022B44B300034
:102E0000390001F018F9B34AB34B01F044F902005C
:102E10000B000C980D9901F017F901F0C5F98046E7
:102E200001F0AAF9AD4AAE4B0C900D9101F033F9C7
:102E30000022AC4B01F008F901F0B6F90700AA4AEC
:102E4000AA4B0C980D9901F026F90C900D913800C1
:102E500001F092F9A64AA74B01F01DF902000B0000
:102E60000C980D9901F0E7F802000B0010901191F9
:102E700001F011F90E900F919F4BFB181B050D935C
:102E800000230C93109E119F32003B00300039004C
:102E900001F0DAF81090119132003B0000208021FF
:102EA000C90501F0C8F806000F000022934B0E98E8
:102EB0000F9901F0D2F80022914B01F0C5F8020001
:102EC0000B000E980F9901F0C8F800228D4B01F00D
:102ED000BBF802000B000E980F9901F0BEF802003B
:102EE0000B003000390001F0AFF802000B00109821
:102EF000119901F0B2F80022704B01F0A5F80C9A7C
:102F00000D9B01F0C8F806000F000C900D910A9A75
:102F10000B9B01F019F900282CD001235B429C4641
:102F2000E0440022764B3000390001F096F80C9016
:102F30000D911FE01E9B04931D9B03931C9B02930A
:102F400022002B0000920193079B099A069908988A
:102F500000F002F912B01CBC90469A46A346F0BDA0
:102F60000A9480231B069C46AC4463460B9317E7E8
:102F70000023984643466333C62B22D804271E9B62
:102F80001B052AD50C9A0D9B1900114311D05E4ADE
:102F90005E4B0A980B9901F0CFF8002800D1BBE0F6
:102FA00000225B4B0A980B9901F0B8F8002800D179
:102FB000B2E01C9B434506DD42469E1A731E1C93DD
:102FC00003E00527DBE700231C938023DB001E9A28
:102FD0001A431E920027002398461D9B9F4200D350
:102FE000A6E0DB1B9B4602231E9A1A40924603D0A2
:102FF000002F01D000239B464346002B07D00C9A9C
:103000000D9B0A980B9901F028F80A900B91002269
:1030100000232000290001F081F8002800D08AE078
:103020003C4B1E9A134004935B4603931C9B0293F4
:103030000A9B0B9C00930194079B099A0699089898
:1030400000F08AF8002F00D184E71E9B9B0600D475
:103050007DE04524451C079B020006992000089C42
:10306000A0474046C21781185140C30F7A1E052061
:1030700005900492002203920A3202920193009179
:10308000079B2A0006992000FFF793FD5346002B6B
:1030900000D15FE70200089D099C131B1D998B421C
:1030A00057D2561C079B06992020A8473200F4E708
:1030B000FFFFEF7FFFFFEFFF01FCFFFF0000F03F8E
:1030C000FB799F501344D33FB3C8608B288AC63F17
:1030D0000000F83F61436F63A787D23F71A379096E
:1030E0004F930A400000E03F1655B5BBB16B02405C
:1030F000EF39FAFE422EE63FFF03000000002C40AD
:1031000000002440000018402D431CEBE2361A3F1B
:1031100080842E41FFF7FFFF1C9B002B00D15CE752
:103120005346002B00D158E71C9B013B1C9354E7EE
:1031300000239B4657E70A9C0B9D22002900802014
:103140000006844661440B000A920B9368E76524ED
:1031500080E71000FEE6C046F0B5D646474680B58B
:1031600097B00690079108920993209F1E9A1F9B83
:103170001000190000F0EDFF00282AD10122524270
:10318000BB4B1E981F9900F0C9FF002830D10122C7
:103190005242B84B1E981F9900F0D6FF00283AD033
:1031A0000423229A134032D0B34A002B31D1032397
:1031B000229903912199029101930092099B089A07
:1031C00007990698FFF726FC17B00CBC90469A4664
:1031D000F0BD229B0393219B029303230193A74BF2
:1031E0000093099B089A07990698FFF713FCEBE7F1
:1031F000229B0393219B029304230193A04B0093F2
:10320000099B089A07990698FFF704FCDCE79D4A9A
:10321000CBE70423CCE700229B4B1E981F9900F0BC
:1032200093FF002817D10022984B1E981F9900F099
:1032300075FF00280FD1002200231E981F9900F06F
:103240006DFF002817D100239A46229B5B0500D40E
:103250007DE000261FE0229B0493219B03930297AD
:103260001E9B1F9C00930194099B089A079906983E
:10327000FFF760FDA8E71E9A1F9B0020002100F0C9
:10328000DAFE1E901F9101239A46DEE70EAB302234
:103290009A55013F01361F2E01D8092FF6D81E98E6
:1032A0001F9900F081FF040000F066FF02000B0090
:1032B0001E981F9900F0BFFEFA00754B9B181A6804
:1032C0005B680C920D9300F0E6FE0A900B9100F003
:1032D0008FFF050000F04CFF02000B000A980B99CD
:1032E00000F0A9FE0A900B9100226A4B00F02CFF1F
:1032F00000282ED00135280000F03AFF02000B0014
:103300000C980D9900F010FF002801D00134002521
:10331000002F2CD1200000F02FFF02000B001E9880
:103320001F9900F088FE00225A4B0A900B9100F082
:10333000F5FE002841D10022564B0A980B9900F067
:1033400003FF002839D1E30737D5013435E00627DC
:103350007FE700224F4B0A980B9900F0DFFE002810
:10336000D6D1002D01D0EB07D2D50135D0E70A9494
:103370001F2E10D8013F0A21280000F019FC741CF0
:1033800030310EAB99550A21280000F011FC051EC2
:1033900025D02600ECE70A9C04E00EAA30219155C6
:1033A0001F0001361F2E02D87B1E002FF5D11F2EC5
:1033B00003D80EAB2E229A5501361F2E14D80A219F
:1033C000200000F0CDFB751C30310EAB99550A2161
:1033D000200000F0C5FB041E05D02E00EDE7A0463E
:1033E0000A9C4646DEE72E000323229A1340012B57
:1033F00016D01F2E06D85346002B28D00EAB2D22F8
:103400009A550136229B0393219B029301960EABA2
:103410000093099B089A07990698FFF7FBFAD3E6F1
:10342000219B002B0DD05346002B02D10C331342AD
:1034300007D0219B013B219303E00EAB30229A552C
:103440000136219B9E42D4D21F2EF6D9D1E7229B72
:103450005B0704D50EAB2B229A550136D2E7229B8F
:103460001B07CFD50EAB20229A550136CAE7C046BE
:10347000FFFFEFFFFFFFEF7F408B00104C8B001032
:10348000508B0010488B001065CDCD4165CDCDC16E
:10349000588B00100000E03FF0B5DE4657464E4620
:1034A0004546E0B595B006000B9115001393002931
:1034B00000D1FCE20027139B1878002800D1F8E225
:1034C000252809D07C1C2B003A000B99B047139B90
:1034D000013313932700EEE70133139300241DE01B
:1034E0000B00303BDBB2092B37D92A293AD0002315
:1034F0009A46139B1A782E2A44D000230C93139AD1
:103500001378683BD9B2122900D980E08B00D049EA
:10351000CB589F4601231C4301321392139A117812
:103520000B00203BD8B21028DAD88300C948C35812
:103530009F4602231C4301321392EFE704231C43EE
:1035400001321392EAE708231C4301321392E5E7A4
:1035500010231C4301321392E0E713A8FFF748FA47
:103560008246C6E71E9B1A1D1E921B68002B04DBB9
:103570009A46139B01331393BBE7022214435B4229
:103580009A46F6E78022D20014435A1C13925A78C6
:103590001300303BDBB2092B04D92A2A07D00023C1
:1035A0000C93ACE713A8FFF723FA0C90A7E71E9B38
:1035B0001A1D1E921B68002B04DB0C93139B013316
:1035C00013939CE70023F8E780235B002343511CFF
:1035D000139152786C2A01D01C0018E0C0239B0084
:1035E0001C430131139112E080232343511C13919A
:1035F0005278682A01D01C0009E0C0231C43013125
:10360000139104E080235B001C4301321392139B4F
:1036100018780300253BDAB2532A00D93DE2930023
:103620008D4AD3589F4680239B001C43013213923E
:10363000EDE780235B001C4301321392E7E7782813
:103640000AD058283BD06F283CD062283DD01023A8
:103650009C43063B9C4601E010239C46582837D0EB
:10366000692803D0642801D00C229443630501D556
:103670000122944369282ED064282CD0A30500D5BC
:10368000A5E0E30500D5BFE0630600D4D2E01E9AB2
:10369000111D1E911168FF220A40059453460493A0
:1036A0000C9B0393634602930023019300922B002B
:1036B0003A000B993000FFF77CFA07002BE010234B
:1036C0009C46CBE708239C46C8E702239C46C5E7F7
:1036D00020221443C4E7A30521D4E30551D4630693
:1036E00068D51E9A111D1E911168FF220A40D3173A
:1036F000D1185940D20F0594534604930C9B039361
:1037000063460293019200912B003A000B9930001E
:10371000FFF74FFA0700139B01331393CBE61E9B71
:10372000DA1D07218A43110008311E911168536880
:103730009846DB1710931193109A119B1000484084
:103740000E901900404641400F910E980F99801A33
:1037500099410E900F914346DA0F08945346079310
:103760000C9B0693634604930023059302920090FA
:1037700001912B003A000B993000FFF769FA07001E
:10378000C9E71E9A111D1E911268D317D11859400E
:10379000D20F0594534604930C9B03936346029304
:1037A000019200912B003A000B993000FFF701FACB
:1037B0000700B0E7230605D51E9A111D1E910023B0
:1037C000D25E94E71E9A111D1E9112688FE71E9B10
:1037D000DA1D07218A43110008311E9153681268CF
:1037E0000092019300220894534607930C9B069382
:1037F00063460493059202922B003A000B99300025
:10380000FFF726FA070086E71E9A111D1E9113681E
:1038100000930594534604930C9B039363460293D1
:10382000002301932B003A000B993000FFF7C1F9F8
:10383000070070E7230606D51E9A111D1E91126817
:103840001204120C29E71E9A111D1E91126824E71A
:1038500060890010AC890010F089001046281AD049
:103860001E9B0733072293431A0008321E921A68E0
:103870005B68009201930494534603930C9B02935C
:103880002B003A000B993000FFF766FC0700139BF2
:10389000013313930FE620231C43E1E7672801D08F
:1038A000472802D180231B011C43452801D047280B
:1038B00001D120231C431E9B0733072293431A0088
:1038C00008321E921A685B68009201930494534672
:1038D00003930C9B02932B003A000B993000FFF7E7
:1038E00029FA0700139B01331393E4E502232340D5
:1038F000994622D0012398461E9B1A1D1E927C1CBD
:1039000018782B003A000B99B0474B46002B1AD180
:10391000139B013313932700CDE5571C0C9B0B9988
:103920002020A84723003A005C1C9E42F5D8B246EE
:103930001700A0462E000C9DDEE701233A000C95EF
:1039400035005646F0E7220043460C9535005646B2
:1039500006E0571C0C9B0B992020A84723003A0037
:103960005C1C9E42F5D814002E000C9DD0E71E9BD7
:103970001A1D1E921B689B460C9B002B21D1012215
:1039800052425B4601E001330A001978002902D057
:10399000511E002AF7D15A469B1A98468023DB0015
:1039A0002340994603D00C9B984500D998460223A2
:1039B0002340129307D03A005C4637004E460D95DF
:1039C0001FE00C9ADDE73A004346370056460D9556
:1039D00006E0551C0D9B0B992020B84723002A00B8
:1039E0005C1C9E42F5D8B2463E00A0465C463700BD
:1039F0004E4606E00C930134551C0D9B0B99B847BD
:103A00002A002078002805D0002EF4D00C994B1EF7
:103A10000029EFD13E0017000D9D129B002B03D112
:103A2000139B0133139346E543460C9535005646E8
:103A300006E0571C0C9B0B992020A84723003A0056
:103A40005C1C9E42F5D817002E000C9DE8E7212350
:103A500023431E9A111D1E9112680092059308239C
:103A600004930C9B039310230293002301932B00D8
:103A70003A000B993000FFF79CF80700139B0133C5
:103A8000139318E57C1C2B003A000B992520B047B6
:103A9000139B0133139327000DE57C1C2B003A0088
:103AA0000B99B047139B01331393270003E5094E8D
:103AB00000E5AF420CD36A1E2B000B990020B047E3
:103AC000380015B03CBC90469946A246AB46F0BDC6
:103AD0003A00F1E7E129001000B585B002900391AA
:103AE0000121009313004A4202A90248FFF7D4FCC7
:103AF00005B000BDE329001001480421014B18471F
:103B000080040020293B001010B5010018231B88F9
:103B100014221088984710BD10B5010018231B8887
:103B200016221088984710BDF0B5C64600B50700AC
:103B30000E0000250123984600E00135B5420AD267
:103B4000AC003C192068FFF7DFFF20600028F4D1AB
:103B500000239846F1E7404604BC9046F0BD0000C3
:103B6000124A936F9B0815D29066D166002905D042
:103B7000FFE7FFE7FFE7516F106F704704B5802143
:103B80000906C2175140002800D0C84304F0FCF8D1
:103B9000002104BDF0B5146E556E576F166FFFF718
:103BA000E3FF1466556657671667F0BD000000D046
:103BB000114A936F9B0813D210665166002905D0F5
:103BC000FFE7FFE7FFE7516F106F704704B500286C
:103BD00001D00020C04304F0D7F8002104BDC04646
:103BE000F0B5146E556E576F166FFFF7E5FF14664C
:103BF000556657671667F0BD000000D094464E4AE0
:103C0000926F9208624601D230E0C046F0B54A4E4B
:103C1000B56F6D08FCD3346E756E776F366F00F03C
:103C200025F89446444A14665566576716676246F7
:103C3000F0BDC0469446404A926F9208624601D257
:103C400058E0C046F0B53C4EB56F6D08FCD3346EFD
:103C5000756E776F366F00F04DF89446364A1466ED
:103C60005566576716676246F0BDC046002B24DBD9
:103C700011D000293EDA00B5C943404200D10131DC
:103C800000F038F8C943404200D10131DB435242D1
:103C900000D1013300BD002AEBD1002801D1002959
:103CA00005D00020C90FC90701D1C043410800B5A4
:103CB00004F062F80022002300BD00B500290ADBF1
:103CC000DB43524200D1013300F014F8C9434042B3
:103CD00000D1013100BDC943404200D10131DB4375
:103CE000524200D1013300F005F8DB43524200D1CB
:103CF000013300BD002923D1002B18D1002A0CD09C
:103D0000BC460D4F38667A6600210023FFE7FFE7C7
:103D1000FFE77A6F386F67467047002801D0074881
:103D2000010000B504F028F80022002300BD0200C5
:103D30000B00002000217047000000D0FFFFFFFFB4
:103D4000002B00D0BFE0130C28D1002AE7D080B4AC
:103D5000114F39667A66FFE7FFE730B4040C7B6FDA
:103D6000396F1B0423433B667A66FFE7FFE7FFE7F3
:103D7000C04684B27B6F3D6F1B0423433B667A666B
:103D8000FFE7FFE7C04600232C042D0C7A6F386F45
:103D900000196941B0BC7047000000D0F0B59446EE
:103DA0000025140E01D112020835140F01D11201A1
:103DB0000435940F01D192000235D40F01D1520085
:103DC0000135D40B0134254F7C66254C3C660E0C26
:103DD00093B2FFE7FFE7FFE73C6F6643360C7703DC
:103DE000BE467343DF0B5B04C01AB941130C734327
:103DF000DB18C91ACE086643360CB64493B2734337
:103E00001F0F1B01C01AB941130C73431F0B1B0575
:103E1000C01AB941860D8F023E436643360C092D08
:103E200024DB520A7243801A7703460A6643360C33
:103E300016235B1BDE40DF40BF1964466643821BCE
:103E40007046043506330100D940A840C01900D39C
:103E50000131A24206D20023F0BD0000000000D0D4
:103E6000FFFFFFFF121B0130F3D3F1E709277F1B90
:103E7000FE406446A2B27243801A00D20139220C7D
:103E80007243130C1204821A99410B0070460435D8
:103E900013370100F940A840801900D30131002BED
:103EA00002D1A2420AD2F0BD013000D30131121B6F
:103EB000FAD2013BF8D1A24200D2F0BD013000D3CA
:103EC0000131121BF7E7F0B51C0C00D080E00CB4F8
:103ED00000251C0A04D11B02160E334312020835BA
:103EE0001C0B04D11B01160F3343120104359C0B2C
:103EF00004D19B00960F334392000235DC0B02D1B4
:103F000092185B4101351C00971864410134464FFB
:103F10007C66464C3C660E0CFFE7FFE7FFE7C046B9
:103F20003C6F6643360C7703BE4697B27743C01B9F
:103F300000D20139C01B00D201399FB27743C91B9F
:103F4000C91B170C77437E04FF0B801BB941CE08B9
:103F50006643360C0C2D33DBB644120B1F053A4377
:103F60001B0B97B27743C01B00D201399FB2774336
:103F7000C91B170C77433E043F0C801BB941860DCB
:103F80008F023E43664329277F1BFE400C3D774648
:103F9000AF40BF1930BCA2B2ABB272437343801AB8
:103FA0009941220C7243130C1204801A99410200A9
:103FB0000B000137001BA941F9D2781E0021F0BD8A
:103FC0000C277F1BFE4077467F0BAF40FF19E0E7D1
:103FD00000245D1C07D0144F7D663966FFE7FFE7BC
:103FE000FFE7FFE73C6F95B29EB265436643401B17
:103FF000B141150C1E0C6543664336042F0C3E433D
:104000002D04401BB141994204D202000B00200054
:104010000021F0BD01D19042F7D3801A99410134BB
:104020009942F2D3F6E70000000000D0FFFFFFFF47
:1040300048404140484018B41B4B5B68FC46019324
:1040400008BD04DF2343001018B4174B1B68FC465F
:10405000019308BD00DF2D4300109446134A926F70
:10406000920809D2624618B40F4BDB68FC460193F4
:1040700008BD0CDFE54500100C4AF0B5146E556E16
:10408000576F166F6246FFF7EEFF084A14665566D3
:1040900057671667F0BD18B4034B9B68FC46019345
:1040A00008BD08DF894400108C140020000000D0F7
:1040B000FFB550404240504059404B40594000E00D
:1040C000FFB5154F4C00640D03D0BC4204D10C0366
:1040D00014D80020090D09055C00640D03D0BC4212
:1040E00004D11C030AD800221B0D1B0501264B40DE
:1040F00009D44B4003D58B4200D18242FFBD994287
:10410000FCD19042FFBD0B43DB1803431343F5D0B2
:10411000C9434918FFBD0000FF07000000B5FFF7C5
:10412000CFFF804100BDC04600B5FFF7C9FF01D9F0
:10413000002000BD012000BD00B5FFF7B9FF01D987
:10414000002000BD012000BD00B5FFF7B1FF804198
:1041500000BD012040054A00121804D85A00121868
:1041600001D80020704701207047002070470000F0
:104170000021002805D17047C1174840401AFAD0E5
:10418000C90713B5064B1B6898470CBC441CA240DA
:104190001005120B0349091B09051943114310BDF2
:1041A000F01300201F04000010B54C00620D8023A6
:1041B000D218DB00D21A5B057E2A10DD9E3A13DA94
:1041C000CC170903490819435242D1406400013415
:1041D0001532202A05DAD0400843604310BD002084
:1041E00010BD0846604310BDC80FC018013810BD8F
:1041F00018B4044B5B6AFC46019308BD24DF954765
:10420000001000008C14002018B4044BDB6FFC4637
:10421000019308BD7CDF1548001000008C140020BD
:1042200070B513231C78012C14D0012C14DC022C43
:1042300002DC1F4A1F4B9A641F48FFF765FC1F4BA7
:10424000186070BD99001A481A4A885001331F2B14
:10425000F8D9EAE70023FAE71948FFF75DFC050003
:104260001848FFF759FC023803789B007F2B19DDB3
:10427000802229000F4800F0C1FC022CD7D1124B3C
:104280001A88B5231B029A4209D1104B1A88104B89
:104290009A4204D10F4B1A880F4B9A42C7D0002084
:1042A000FDF766FF0D4B0E4A32210E48FDF7C6FEA4
:1042B000E94200108C1400204C330000F013002061
:1042C000534400005346000054380000D838000022
:1042D000494600009C38000059460000A88B001099
:1042E0004C8C0010088C001007B56046002800D1E7
:1042F00000BE01880A0A0230DF2AFAD1C9B2820858
:1043000004D3028840880004104300E00068024A99
:104310005050039007BD00008C1400200FB403BC64
:104320000CBCF0B50124E407634000E0F0B50C0DCF
:10433000CF0F661E3605891B640503D3C94340426F
:1043400000D30131640D03D0661CF60A07D0E41BCC
:1043500000207F00791C89078912803C24031D0DF1
:10436000DF0F6E1E36059B1B6D0503D3DB435242E8
:1043700000D301336D0D03D06E1CF60A07D0ED1B80
:1043800000227F007B1C9B079B12803D2D032F1B6F
:10439000661B58D4A446202E46DA20371400BC40B1
:1043A0001D00BD40F24033412A4380185941CB0FD4
:1043B00005D0C943C0430022644250415141624686
:1043C0004D0D28D10D0D07D100281FD024194041D3
:1043D0004941013A0D0DF9D0640006D3013000D3F4
:1043E0000131002C01D140084000013A0BD4941C4B
:1043F000E40A04D112051144DB071944F0BDD907C2
:10440000204B194300E0D9070020F0BD0029DDD181
:10441000002CDBD1F0BD0132C6074008CD07284390
:104420004908002EE1D0D9E73C2E29DA203E40375A
:104430001400BC4000D00124F24014431A00BB40D9
:104440001C43D317ACE7AC46202F08DA2036040013
:10445000B4400D00B540F84039412843A5E73C2F52
:104460000CDA203F40360400B44000D00124F8406C
:1044700004430800B1400C43C117EAE710001900DB
:10448000002494E70000F07FF0B50C0D661E3605A1
:10449000891BE60A6405640D02D0651CED0A04D090
:1044A000002001210905803C2403A4461C0D671E41
:1044B0003F05DB1BE70A6405640D02D0651CED0AAD
:1044C00004D0002201231B05803C24037740644470
:1044D00097B484B296B27443070C7E43150C6F43B5
:1044E00080B26843361802D3012000043F1830041C
:1044F000350C00197D41844688B29AB250430C0CA9
:1045000062431F0C7C438EB27E43921902D3012674
:104510003604A4191604170C3618674101BC81B281
:104520009AB25143040C62431B0C5C4380B2584363
:10453000121802D30120000424181004130C401890
:1045400063412D185E410020474106BC88B293B2FA
:1045500058430C0C6343120C544389B251435B180B
:1045600002D301210904641819041A0C09186241C4
:104570006D1856410020474118BCF902720D1143D5
:10458000F0026A0D1043ED020A0D03D16D1940418E
:104590004941013B124E9B1B7600B3420ED26D0087
:1045A00007D30130002671416646354301D14008EA
:1045B00040001B05C918E4072144F0BD0BDA0133A4
:1045C00006D1013004D101314F0D01D04908F2E785
:1045D000E1070020F0BD013631050020EBE70000C7
:1045E000FF030000F0B51C0D671E3F05DB1BE70A4B
:1045F0006405640D02D0661CF60A04D00022012373
:104600001B05803C2403D0252D060026F6432E668C
:104610001E096E66CE0FF619B44649004F0D02D042
:104620007E1CF60A03D000200021403F3F033E1BC2
:10463000B600B444013F7F05C91B49082E6F0136FF
:1046400076089C02950D25437543ED137543AD1314
:1046500001356D10F603761B0CB4CC02450D2C43CE
:10466000A2B2B3B25A43270C7B43350C6F43A4B2BA
:104670006C431B1902D3012424043F191C041D0C94
:10468000A4187D4124196D41009A91B2ACB26143E6
:10469000170C7C432B0C5F4392B25A43A41802D3ED
:1046A00001221204BF182204230C52187B41019CE2
:1046B0006C431B19520ED9010A434401A01A81B25E
:1046C000B2B2514303145A43360C734387B2774353
:1046D000D617D21900277E4136049B191704160CF1
:1046E0007F185E417316ED18F30100268033754183
:1046F000A90F06D16400690AE8055B0A184309D2CC
:104700002FE00422944480337541A90AA8059B0A2E
:10471000184326D3404149412404009A019B0D00CF
:104720005543641B4343E41A95B286B27543170C94
:104730007E43030C5F4392B25A43B61802D3012260
:104740001204BF183204330C52197B4152429C416F
:10475000002C02D40022013051414008CA07104306
:10476000490802B06246D7079210084BD218084B8E
:104770009A4203D212058918C919F0BD0020002AF7
:1047800001DC3900F0BD01331905F5E7FD03000038
:10479000FE070000002200B5203200F004F80800F7
:1047A00000BD000000220B150AD410B5944600F09D
:1047B0005FF81414013400DA0021CB17144C2047A1
:1047C0000020002170476244343A0CD40C2A07DAE6
:1047D00004009140904052422032D440214310BD09
:1047E000D843D94310BD203207D40C4694405242DE
:1047F00020321141D040204310BD0800C91720329B
:1048000003D452422032104110BD1800190010BDCF
:10481000C74700104A00520D144BD21A13DDFF2A6D
:104820001EDAD205CB0FDB071A43C300400F090382
:10483000490A084310435B0001D301D0013070479F
:104840004308FBD2704702D0C80FC00770470A0365
:1048500012130132F8D1420F072AF5D1012200E0EC
:10486000FF22C80F00028018C005704780030000B7
:104870000A0DCC0F531E1B05C91A520503D3C94399
:10488000404200D30131520D03D0531CDB0A07D044
:10489000121B00206400611C89078912803A1203F0
:1048A000014BD21A70470000FF03000051434343FD
:1048B000C9188C46110C83B24B4310B4040C6143ED
:1048C00092B280B2504362431C041B0C001910BC0E
:1048D00059411304120CC018514161447047000043
:1048E00048404140484000239C46114B5B681847B4
:1048F00000239C460E4B1B6818470E4A936F9B087B
:1049000004D200239C460A4BDB681847F0B5146EAE
:10491000556E576F166FFFF7F4FF064A146655661B
:1049200057671667F0BD00239C46014B9B681847EC
:104930008C150020000000D007B548404140484099
:1049400001E0C04607B54200120E03D0FF2A03D192
:10495000420218D8C00DC0054A00120E03D0FF2A2B
:1049600003D14A020FD8C90DC9050122414005D41F
:10497000414001D5814207BD884207BD0143491826
:1049800001D0C043001807BD00B5FFF7D5FF804137
:1049900000BD491A002807D108467047C10FC90752
:1049A00000D54042002817D0F44603B40B4B1B68D7
:1049B000984706BC81409E384042803107D20B06A2
:1049C00007D04900490AC005104308436047013039
:1049D000F8E7490A8902F5E770470000F013002064
:1049E00041000A0E80231B067E2A0BDD9E3A0BDA5D
:1049F000C1174002400818435242D04049000131DB
:104A00004843704700207047C00FC01801387047F6
:104A1000C0420DD300B540004008002100F012F85C
:104A2000002801D4404200BD8020000600BD0000E7
:104A3000034BDB69FC4618471CDF994B0010000054
:104A40008C15002000239C46014B5B6A1847000030
:104A50008C150020034BDB6FFC4618477CDFB14B05
:104A6000001000008C15002070B513231D782A4813
:104A7000FFF752F80400012D11D0012D09DDA31E0E
:104A80001B789B007F2B40DD80222100234800F013
:104A9000B5F82348FFF738F8224B186070BD542250
:104AA00001001E4800F0AAF81F4B1A881F4B9A42BB
:104AB0001CD1A7239B011A881D4B9A4216D11D4B6E
:104AC0001A881D4B9A4211D11C4B1A8894239B01C2
:104AD0009A420BD11A4B1A881A4B9A4206D11A4B9A
:104AE0001A681A4B9A4201D1152307E01848FDF7BE
:104AF0003FFB99001748094A885001331F2BF8D90A
:104B0000144A064B1A62DA61B7E7134B134A422183
:104B10001348FDF793FAC046534600008C15002059
:104B20004C330000F0130020EE290000C40F0000F9
:104B3000C20D0000962B0000C0B50000182B00002D
:104B4000CC2A000010B50000FC2C000051ED876459
:104B5000007F0010654B0010608C0010D88C001096
:104B6000948C001007B56046002800D100BE018873
:104B70000A0A0230DF2AFAD1C9B2820804D30288B5
:104B800040880004104300E00068024A505003903F
:104B900007BD00008C1500200021C2158032803234
:104BA00001D0024A1047002070470000CD2A0000C3
:104BB000C30FDB0741000A0E07D0FF2A08D00909FE
:104BC000054A8918194340077047190000207047AB
:104BD0000249C918FAE70000000000380000F07F21
:104BE00001480421014B184790040020293B001084
:104BF000014B1B681847000090040020014B5B68C4
:104C0000184700009004002010B50C000368110044
:104C10002000984710BD0000F8B506000D001700F1
:104C2000437C002B23D10368110028009847F8BD6E
:104C3000337C10E00221174833689847601C013428
:104C4000BC4217DA002CF3DD2B19013B1B780D3B1E
:104C50005A425341DBB22A5D0A2AF0D1002BEED131
:104C6000A042E7DA211A281833689847E2E70024BF
:104C70000020E5E7B84203DA391A28183368984764
:104C8000002FD4DDED19013D2B780D3B5A425341E5
:104C90003374CCE7D48D001070B505000368002B89
:104CA00016D00C4B1C6805E0291D2A682000FFF770
:104CB000B3FFE468002C09D02368002BF9D0064B21
:104CC0001B68002BF0D0A342F3D1EDE700232B604B
:104CD00070BDC046C80F0020CC0F002070B5050085
:104CE0000C000B68802B05D023685A1C2260E41846
:104CF000257170BD0800FFF7CFFFF5E7F0B583B071
:104D000005000C001700019327E0B368002B04D0C6
:104D1000210028009847002826DCF668002E06D0DF
:104D2000124B1B68002BF0D0B342F6D1EDE7012007
:104D30000021FCF735FE019A0D4B5B6A9A4209D8B7
:104D40000B48806AB8420BD29A4201D0012302E09C
:104D5000002300E00023002B04D1064B1E68DDE792
:104D60000123F8E70120404203B0F0BDCC0F002042
:104D700000400540C80F002010B582B0D0231B06AC
:104D800000241C5701A9074803F006F8002806D1A3
:104D9000019B9C4203D0034803F00EF8012002B0AF
:104DA00010BDC0461009002010B5024802F0DCFF1B
:104DB00010BDC04610090020F0B5C64600B584B04D
:104DC00001900D0016001C00FFF7D6FF80466B1CFB
:104DD00005D0002C08D0194F194B1C6814E001981D
:104DE00002F0CCFE0500F4E7164FF5E72A00019922
:104DF0002000B847002E06D002ABD91D0A230B7045
:104E000001222000B847E468002C09D02368002B59
:104E1000F9D00D4B1B68002BE8D0A342F3D1E5E796
:104E20004346002B06D1681E8541E8B204B004BC9D
:104E30009046F0BDFFF7B8FFF5E7C046094C0010FB
:104E4000C80F0020194C0010CC0F002010B582B004
:104E500004006B46D81D0470002300220121FFF7D7
:104E6000ABFF200002B010BD094A1368002B0BD025
:104E7000834202D00C331A00F7E7002907D1C36838
:104E800013600023C36002E0002900D01060704767
:104E9000C80F002010B5064B1C6800E0E468002C29
:104EA00004D06368002BF9D09847F7E710BDC046DF
:104EB000C80F002070B5050002F060FE040000235A
:104EC000012201002800FFF777FFFFF7E3FF200032
:104ED00070BD000070B5A2B004000E00FFF74CFFDB
:104EE00005008422002101A8FFF782FE3300220082
:104EF00001A90848FEF7F0FD040001A8FFF7CCFE69
:104F0000FFF7C8FF002D02D1200022B070BDFFF7CF
:104F10004BFFF9E7DD4C00100FB400B583B004A9D6
:104F200001C90191FFF7D6FF03B008BC04B01847D0
:104F300010B500F075F910BDF0B583B00400002580
:104F4000FCF70EFD002918DB22002B0012184B4144
:104F5000994202D804D1904202D901225242D31779
:104F6000002B10DB012101A8FFF7C8FE002802DB9F
:104F70000FD001AB187803B0F0BD094B094A3F21AF
:104F80000948FDF75BF8064B064A3F210648FDF746
:104F900055F89221054B064A49000648FDF74EF8A0
:104FA000F87D0010608D0010147E0010E08000106D
:104FB000788D0010988D001070470000014B002282
:104FC0001A707047261400204B79FF2B01D0002067
:104FD00070478B79002B0DD1CB79012B01D00020AC
:104FE000F6E7082A01D80020F2E78A78024B1A7007
:104FF0000920EDE70020EBE7261400200120704790
:1050000070B500292BD1117953791B020B43154937
:1050100009788B4201D0002022E05378012B03D085
:10502000022B15D000201BE09178D3781B020B4394
:10503000DA0503D55A0A0125954000E000257F24B2
:105040001C400948FEF760FD030021002800984736
:10505000642200210020FDF78DFC012000E00120EA
:1050600070BDC04626140020554200000123037085
:1050700000487047D88D001010B50B784A7812029E
:105080001A438B781B041A43CB781B0613439622D2
:10509000D200934200D010BD0348FEF735FD030057
:1050A000002108009847C0465542000030B583B043
:1050B00004000D0001A9184802F06EFE002808D176
:1050C000D0231B061B68019A9A4221D0124802F095
:1050D00073FE002001F01EFE002807D10324644265
:1050E0000D4802F041FE200003B030BD002001F069
:1050F00033FE002802D103246442F1E72A00210094
:10510000002001F037FE041EEAD103246442E7E7E1
:1051100003246442E7E7C046F813002010B50021DD
:10512000054802F039FE002800D110BD01F088FBCF
:10513000014802F019FEF8E7F8130020F0B5C64662
:1051400000B582B080460D0001A92E4802F024FE71
:10515000002808D1D0231B061B68019A9A420FD061
:10516000284802F029FE002001F0D4FD002847D194
:10517000254B0020002118605960224802F0F4FD00
:1051800002B004BC9046F0BD01F05AFB002001F0D3
:1051900005FE002001F0BEFD0028EED0002001F049
:1051A0007FFE00281DD0AC42E7DA2E1B002001F064
:1051B00077FE864200DC30000028E5D0434619190E
:1051C0000200002001F050FE060001F039FB002033
:1051D00001F0E4FDA419FCF7C3FB0B4B1860596008
:1051E000E1E7FCF7BDFB084B1E685F68074A002338
:1051F00092197B419942C0D8D5D19042D3D9BCE70E
:105200000024D0E7F8130020300A002020A1070076
:1052100010B51F20FDF73EF9FA208000002110BDD7
:1052200070B584B0234B1B7802F076F822491F201A
:10523000FDF740F901211F20FDF724F91F48FCF775
:10524000B7FCFCF709F90400FCF78AFB002920DB16
:10525000FA229200002312184B41994202D804D13D
:10526000904202D901225242D317002B17DB0121B1
:10527000029100210191124900912000FCF702F9EE
:105280000400631E9C41E4B200280ED1200004B04B
:1052900070BD0C4B0C4A3F210C48FCF7CFFE094B6C
:1052A000094A3F210948FCF7C9FE01210848FFF7D8
:1052B000DBFDEBE7FC9500101D510010F8130020FA
:1052C00011520010F87D0010FC8D0010147E0010AB
:1052D000A004002000487047A88E001000487047C6
:1052E000548E001010B50400144B1B78002B0DD009
:1052F000002C10D1124B134A5A80012301335B005A
:10530000C022920013430E48038010BD11210B48A8
:1053100002F0BEFBECE7052C0ED8A4000A4BE458C3
:105320000023122BEAD8E25C002AE7D001335900AF
:1053300003484252DBB2F4E70020E6E710140020F5
:10534000A00F002009040000BC8E00107F23034042
:10535000C209580080184001014BC0187047C04670
:10536000D00F002010B582B001AB00221A7080323D
:105370005A70002406E001AB185DFFF7E7FF012338
:10538000C3700134012CF6D902B010BD10B5838B67
:105390003F333F229343022915D0124C2268C2604A
:1053A000D31823609C0610D10F4C624063408024C8
:1053B0006401A3420FD88906114380231B061943B9
:1053C0004368196010BD5B00E7E7084B084A5421A9
:1053D0000848FCF733FE084B054A56210548FCF700
:1053E0002DFEC046D413002000001050348F001052
:1053F000D48E0010648F0010B48F0010F8B5050033
:105400000E001400FFF7A2FF7F232B40EF098570E9
:105410007A427A4142700022C27086838477012FDB
:1054200015D0DA0012498C466244826082680021FD
:105430001160002B11D0012F13D0013BDB000D4A6E
:105440009446634443602100FFF7A0FFF8BDDA00F3
:1054500009498C4662448260E8E74360074BC360B9
:10546000F4E7013BDB00064A944663444360EAE705
:10547000840010500C00105080001050000110509B
:105480000800105010B5002308E00133DA000021B5
:1054900008481150844662445160DBB20E2BF4D9A7
:1054A000F022920000210448FFF7A2FB034B044ABC
:1054B0001A6010BD0000105010100020D4130020FE
:1054C00080011050F0B5CE46474680B583B01D4BE5
:1054D0009F6D0024012603E0B74376000134E4B257
:1054E000002F29D01F2C27D83E42F6D0164B9E65A0
:1054F000630899460123634001221A4090464B46B7
:105500005D0045446D01114BED18280000F0AAFA2A
:105510000028E1D04B465B0043445B010B4AD318A3
:105520009A8A9978012300930023002000F012FE4C
:10553000280000F007FACFE703B00CBC904699466C
:10554000F0BDC0460000115000301150D00F0020B7
:1055500070B52A4A9823D458E3030BD40025E306F8
:1055600016D4E30419D4630429D4230433D4A54204
:105570003ED170BDFFF7F6FE01222149002000F068
:10558000CFFD204B802292021A6580256D02E6E74E
:1055900010231D43FFF796FFE3E780235B011D43C4
:1055A000164B00221A60FFF76DFF01220021002038
:1055B00000F0A0FD134B802212031A65D3E780236D
:1055C000DB011D4301220421002000F07FFD0D4B73
:1055D00010221A65C9E780231B021D430122052101
:1055E000002000F073FD074B802212011A65BEE710
:1055F000290061400448FCF7BBFDC0460000115083
:105600000000105000301150F48F001070B50C00E5
:105610001500FFF79BFE2A00210000F0FFF970BD86
:1056200010B5002804D101210520FCF72BFF10BD87
:10563000B921034B034A49000348FCF7FFFCC0466D
:10564000E88F0010F48E0010648F001010B5002851
:1056500005D1002200218020FFF7D8FF10BDBF2117
:10566000024B034A49000348FCF7E8FCE88F0010AE
:10567000048F0010648F0010024B80225202DA6403
:105680007047C0460020115070B5051E25D100F0AE
:1056900033F9154C0C23A36714490520FCF70AFFC6
:1056A000402200211248FFF7A3FA002240210020E7
:1056B000FFF7A4FE002240218020FFF79FFEFFF7A6
:1056C000E1FE0123236480239B05E3649023094AC0
:1056D000E2502800FFF7D0FF70BD4E21064B074A6D
:1056E000FF310748FCF7AAFC00001150515500108B
:1056F000D00F002010D00100E88F0010E88E0010BD
:10570000648F00100B785B0602D14B78052B00D01C
:1057100070478A78014B1A60FAE7C04600001150C2
:1057200010B50C0000280DD10979627907231340C8
:105730001B021943E2789207920FA078FFF75EFEF2
:10574000012010BDD621034B034A49000348FCF752
:1057500075FCC046E88F0010148F0010648F001095
:1057600010B5FFF78FFE10BD10B50C00110000281A
:1057700005D11A002000FFF749FF012010BDBC2110
:10578000024B034AFF310348FCF758FCE88F001036
:10579000248F0010648F001010B54B0605D1CB0983
:1057A000012B0BD00222064B9A660800FFF7CEFDB4
:1057B00080221201002100F0CBF810BD0122F2E797
:1057C0000020115010B54B0600D110BD0800FFF7A6
:1057D000BDFD0023C3700022014900F0B9F8F4E7D1
:1057E000FFF7FFFFF8B504000F00438A828B1E1CF1
:1057F000934200D9161CB6B29B1B63828025ED0034
:105800003543E378002B13D0802292011543012207
:105810005340E3706378002B0CD0638A002B02D1D5
:105820008023DB011D43002F00D02D042800F8BD8C
:105830000022EBE7B801E3689C4660443200A169AE
:10584000FFF7DCF9A3699C466644A66180231B022E
:105850001D43E2E770B5040083681B68002900D08F
:105860001B0C9D05AD0D6278002A11D11B0409D4D3
:10587000A38A5B19A382A38BAB4201D90023638265
:10588000280070BD0E4B0F4AD7210F48FCF7D6FBFE
:105890001B040ED58901E3689C4661442A00A06977
:1058A000FFF7ACF9A38A5B19A382A3695B19A36113
:1058B000E1E7064B034ADE210348FCF7BFFBC04685
:1058C000A490001008900010C490001014910010D3
:1058D00010B5040083681B680021FFF7BBFF6368F5
:1058E0001B685B0002D5A38B834200D010BD012151
:1058F0002000FFF7AFFFF9E710B580235B040C4AE7
:1059000013600C4A13600C4B9A6880235B0493432A
:10591000F9D10A4C9C2200212000FFF769F980226E
:10592000520100210648FFF763F90923636710BDA0
:1059300000E0004000F0004000C0004000001150B6
:1059400000001050002303744382838283617047F8
:1059500010B5002902D083681B681940002A0FD0B7
:10596000114353050CD5826813685B050BD40B4BB0
:105970000B401360FFE7FFE7FFE7FFE7FFE7FFE705
:105980008368196010BD83787F211940DB099B0073
:10599000034A9A580348FCF7EBFBC046FFFBFFFFA6
:1059A000B40400201890001070B5040043681E680D
:1059B0000021FFF717FF80256D010543144B1B6C79
:1059C0009B0704D4A378DB0914D1013300E0002342
:1059D000628A002A01D0002B0ED00E4B1E4080237D
:1059E0009B053343626813602A0000212000FFF703
:1059F000AFFF70BD0023EBE701212000FFF7F2FEAF
:105A00000543054B1E40A023DB053343EAE7C046B0
:105A100000001150FFFFFFAFFFFFFFDF70B5040074
:105A20000D001600037C002B09D166820023A3829F
:105A300001332374A5612000FFF7B6FF70BD8378A2
:105A40007F211940DB099B00044A9A580448FFF75C
:105A500063FA2000FFF776FFE7E7C046B4040020B2
:105A60006490001070B50400057C002D06D0FFF78F
:105A70002FFF638A002B08D1280070BD81787F2317
:105A80001940044A0448FCF773FB2000FFF78CFF21
:105A90000025F1E7B40400203890001070B505002F
:105AA000002411E0E31ADBB2002B07D15A00D3180F
:105AB000DA00174B9B1802E02300F5E700235B6830
:105AC000280098470134E4B2124B1B785A1C9442C8
:105AD0000BDA114A002AEFD0A342E3D9620012196F
